{
  "_format": "hh-sol-artifact-1",
  "contractName": "GMApelion",
  "sourceName": "contracts/GMApelion.sol",
  "abi": [
    {
      "anonymous": false,
      "inputs": [
        {
          "indexed": true,
          "internalType": "address",
          "name": "owner",
          "type": "address"
        },
        {
          "indexed": true,
          "internalType": "address",
          "name": "approved",
          "type": "address"
        },
        {
          "indexed": true,
          "internalType": "uint256",
          "name": "tokenId",
          "type": "uint256"
        }
      ],
      "name": "Approval",
      "type": "event"
    },
    {
      "anonymous": false,
      "inputs": [
        {
          "indexed": true,
          "internalType": "address",
          "name": "owner",
          "type": "address"
        },
        {
          "indexed": true,
          "internalType": "address",
          "name": "operator",
          "type": "address"
        },
        {
          "indexed": false,
          "internalType": "bool",
          "name": "approved",
          "type": "bool"
        }
      ],
      "name": "ApprovalForAll",
      "type": "event"
    },
    {
      "anonymous": false,
      "inputs": [
        {
          "indexed": true,
          "internalType": "address",
          "name": "previousOwner",
          "type": "address"
        },
        {
          "indexed": true,
          "internalType": "address",
          "name": "newOwner",
          "type": "address"
        }
      ],
      "name": "OwnershipTransferred",
      "type": "event"
    },
    {
      "anonymous": false,
      "inputs": [
        {
          "indexed": true,
          "internalType": "address",
          "name": "from",
          "type": "address"
        },
        {
          "indexed": true,
          "internalType": "address",
          "name": "to",
          "type": "address"
        },
        {
          "indexed": true,
          "internalType": "uint256",
          "name": "tokenId",
          "type": "uint256"
        }
      ],
      "name": "Transfer",
      "type": "event"
    },
    {
      "inputs": [
        {
          "internalType": "address",
          "name": "to",
          "type": "address"
        },
        {
          "internalType": "uint256",
          "name": "tokenId",
          "type": "uint256"
        }
      ],
      "name": "approve",
      "outputs": [],
      "stateMutability": "nonpayable",
      "type": "function"
    },
    {
      "inputs": [
        {
          "internalType": "address",
          "name": "owner",
          "type": "address"
        }
      ],
      "name": "balanceOf",
      "outputs": [
        {
          "internalType": "uint256",
          "name": "",
          "type": "uint256"
        }
      ],
      "stateMutability": "view",
      "type": "function"
    },
    {
      "inputs": [
        {
          "internalType": "uint256",
          "name": "nftTokenId",
          "type": "uint256"
        }
      ],
      "name": "burn",
      "outputs": [
        {
          "internalType": "uint256",
          "name": "",
          "type": "uint256"
        }
      ],
      "stateMutability": "nonpayable",
      "type": "function"
    },
    {
      "inputs": [
        {
          "internalType": "uint256",
          "name": "tokenId",
          "type": "uint256"
        }
      ],
      "name": "getApproved",
      "outputs": [
        {
          "internalType": "address",
          "name": "",
          "type": "address"
        }
      ],
      "stateMutability": "view",
      "type": "function"
    },
    {
      "inputs": [
        {
          "internalType": "string",
          "name": "name_",
          "type": "string"
        },
        {
          "internalType": "string",
          "name": "symbol_",
          "type": "string"
        }
      ],
      "name": "initializeERC721",
      "outputs": [
        {
          "internalType": "string",
          "name": "",
          "type": "string"
        }
      ],
      "stateMutability": "nonpayable",
      "type": "function"
    },
    {
      "inputs": [],
      "name": "initializeGMApelion",
      "outputs": [
        {
          "internalType": "string",
          "name": "",
          "type": "string"
        }
      ],
      "stateMutability": "nonpayable",
      "type": "function"
    },
    {
      "inputs": [],
      "name": "initializeOwnable",
      "outputs": [
        {
          "internalType": "address",
          "name": "",
          "type": "address"
        }
      ],
      "stateMutability": "nonpayable",
      "type": "function"
    },
    {
      "inputs": [
        {
          "internalType": "address",
          "name": "owner",
          "type": "address"
        },
        {
          "internalType": "address",
          "name": "operator",
          "type": "address"
        }
      ],
      "name": "isApprovedForAll",
      "outputs": [
        {
          "internalType": "bool",
          "name": "",
          "type": "bool"
        }
      ],
      "stateMutability": "view",
      "type": "function"
    },
    {
      "inputs": [],
      "name": "mint",
      "outputs": [
        {
          "internalType": "uint256",
          "name": "",
          "type": "uint256"
        }
      ],
      "stateMutability": "nonpayable",
      "type": "function"
    },
    {
      "inputs": [],
      "name": "name",
      "outputs": [
        {
          "internalType": "string",
          "name": "",
          "type": "string"
        }
      ],
      "stateMutability": "view",
      "type": "function"
    },
    {
      "inputs": [],
      "name": "owner",
      "outputs": [
        {
          "internalType": "address",
          "name": "",
          "type": "address"
        }
      ],
      "stateMutability": "view",
      "type": "function"
    },
    {
      "inputs": [
        {
          "internalType": "uint256",
          "name": "tokenId",
          "type": "uint256"
        }
      ],
      "name": "ownerOf",
      "outputs": [
        {
          "internalType": "address",
          "name": "",
          "type": "address"
        }
      ],
      "stateMutability": "view",
      "type": "function"
    },
    {
      "inputs": [],
      "name": "renounceOwnership",
      "outputs": [],
      "stateMutability": "nonpayable",
      "type": "function"
    },
    {
      "inputs": [
        {
          "internalType": "address",
          "name": "from",
          "type": "address"
        },
        {
          "internalType": "address",
          "name": "to",
          "type": "address"
        },
        {
          "internalType": "uint256",
          "name": "tokenId",
          "type": "uint256"
        }
      ],
      "name": "safeTransferFrom",
      "outputs": [],
      "stateMutability": "nonpayable",
      "type": "function"
    },
    {
      "inputs": [
        {
          "internalType": "address",
          "name": "from",
          "type": "address"
        },
        {
          "internalType": "address",
          "name": "to",
          "type": "address"
        },
        {
          "internalType": "uint256",
          "name": "tokenId",
          "type": "uint256"
        },
        {
          "internalType": "bytes",
          "name": "_data",
          "type": "bytes"
        }
      ],
      "name": "safeTransferFrom",
      "outputs": [],
      "stateMutability": "nonpayable",
      "type": "function"
    },
    {
      "inputs": [
        {
          "internalType": "address",
          "name": "operator",
          "type": "address"
        },
        {
          "internalType": "bool",
          "name": "approved",
          "type": "bool"
        }
      ],
      "name": "setApprovalForAll",
      "outputs": [],
      "stateMutability": "nonpayable",
      "type": "function"
    },
    {
      "inputs": [
        {
          "internalType": "bytes4",
          "name": "interfaceId",
          "type": "bytes4"
        }
      ],
      "name": "supportsInterface",
      "outputs": [
        {
          "internalType": "bool",
          "name": "",
          "type": "bool"
        }
      ],
      "stateMutability": "view",
      "type": "function"
    },
    {
      "inputs": [],
      "name": "symbol",
      "outputs": [
        {
          "internalType": "string",
          "name": "",
          "type": "string"
        }
      ],
      "stateMutability": "view",
      "type": "function"
    },
    {
      "inputs": [
        {
          "internalType": "uint256",
          "name": "tokenId",
          "type": "uint256"
        }
      ],
      "name": "tokenURI",
      "outputs": [
        {
          "internalType": "string",
          "name": "",
          "type": "string"
        }
      ],
      "stateMutability": "view",
      "type": "function"
    },
    {
      "inputs": [],
      "name": "totalSupply",
      "outputs": [
        {
          "internalType": "uint256",
          "name": "",
          "type": "uint256"
        }
      ],
      "stateMutability": "pure",
      "type": "function"
    },
    {
      "inputs": [
        {
          "internalType": "address",
          "name": "from",
          "type": "address"
        },
        {
          "internalType": "address",
          "name": "to",
          "type": "address"
        },
        {
          "internalType": "uint256",
          "name": "tokenId",
          "type": "uint256"
        }
      ],
      "name": "transferFrom",
      "outputs": [],
      "stateMutability": "nonpayable",
      "type": "function"
    },
    {
      "inputs": [
        {
          "internalType": "address",
          "name": "newOwner",
          "type": "address"
        }
      ],
      "name": "transferOwnership",
      "outputs": [],
      "stateMutability": "nonpayable",
      "type": "function"
    },
    {
      "inputs": [
        {
          "internalType": "string",
          "name": "uri",
          "type": "string"
        },
        {
          "internalType": "uint256",
          "name": "nftTokenId",
          "type": "uint256"
        }
      ],
      "name": "updateMetaData",
      "outputs": [
        {
          "internalType": "uint256",
          "name": "",
          "type": "uint256"
        }
      ],
      "stateMutability": "nonpayable",
      "type": "function"
    }
  ],
  "bytecode": "0x608060405234801561001057600080fd5b50611887806100206000396000f3fe608060405234801561001057600080fd5b506004361061014d5760003560e01c80636352211e116100c3578063b78975a11161007c578063b78975a11461029b578063b88d4fde146102a3578063c87b56dd146102b6578063d147c97a146102c9578063e985e9c5146102dc578063f2fde38b1461031857600080fd5b80636352211e1461024157806370a0823114610254578063715018a6146102675780638da5cb5b1461026f57806395d89b4114610280578063a22cb4651461028857600080fd5b806318160ddd1161011557806318160ddd146101e55780631d2d602a146101ed57806323b872dd146101f557806326cbdc5c1461020857806342842e0e1461021b57806342966c681461022e57600080fd5b806301ffc9a71461015257806306fdde031461017a578063081812fc1461018f578063095ea7b3146101ba5780631249c58b146101cf575b600080fd5b610165610160366004611366565b61032b565b60405190151581526020015b60405180910390f35b61018261037d565b60405161017191906113d0565b6101a261019d3660046113e3565b61040f565b6040516001600160a01b039091168152602001610171565b6101cd6101c8366004611413565b6104a9565b005b6101d76105bf565b604051908152602001610171565b6127106101d7565b6101826105d3565b6101cd61020336600461143d565b610627565b6101d7610216366004611525565b610658565b6101cd61022936600461143d565b61066c565b6101d761023c3660046113e3565b610687565b6101a261024f3660046113e3565b610693565b6101d761026236600461156a565b61070a565b6101cd610791565b6006546001600160a01b03166101a2565b610182610835565b6101cd610296366004611585565b610844565b6101a2610909565b6101cd6102b13660046115c1565b610953565b6101826102c43660046113e3565b61098b565b6101826102d736600461163d565b610aa9565b6101656102ea3660046116a1565b6001600160a01b03918216600090815260056020908152604080832093909416825291909152205460ff1690565b6101cd61032636600461156a565b610b67565b60006001600160e01b031982166380ac58cd60e01b148061035c57506001600160e01b03198216635b5e139f60e01b145b8061037757506301ffc9a760e01b6001600160e01b03198316145b92915050565b60606000805461038c906116d4565b80601f01602080910402602001604051908101604052809291908181526020018280546103b8906116d4565b80156104055780601f106103da57610100808354040283529160200191610405565b820191906000526020600020905b8154815290600101906020018083116103e857829003601f168201915b5050505050905090565b6000818152600260205260408120546001600160a01b031661048d5760405162461bcd60e51b815260206004820152602c60248201527f4552433732313a20617070726f76656420717565727920666f72206e6f6e657860448201526b34b9ba32b73a103a37b5b2b760a11b60648201526084015b60405180910390fd5b506000908152600460205260409020546001600160a01b031690565b60006104b482610693565b9050806001600160a01b0316836001600160a01b031614156105225760405162461bcd60e51b815260206004820152602160248201527f4552433732313a20617070726f76616c20746f2063757272656e74206f776e656044820152603960f91b6064820152608401610484565b336001600160a01b038216148061053e575061053e81336102ea565b6105b05760405162461bcd60e51b815260206004820152603860248201527f4552433732313a20617070726f76652063616c6c6572206973206e6f74206f7760448201527f6e6572206e6f7220617070726f76656420666f7220616c6c00000000000000006064820152608401610484565b6105ba8383610c82565b505050565b60006104d26105ce3382610cf0565b919050565b6040805180820182526005815264545259203160d81b6020808301919091528251808401909352600383526254525960e81b908301526060916106168282610aa9565b5061061f610909565b509092915050565b6106313382610e32565b61064d5760405162461bcd60e51b81526004016104849061170f565b6105ba838383610f29565b60008161066581856110c9565b9392505050565b6105ba83838360405180602001604052806000815250610953565b600081610377816110e8565b6000818152600260205260408120546001600160a01b0316806103775760405162461bcd60e51b815260206004820152602960248201527f4552433732313a206f776e657220717565727920666f72206e6f6e657869737460448201526832b73a103a37b5b2b760b91b6064820152608401610484565b60006001600160a01b0382166107755760405162461bcd60e51b815260206004820152602a60248201527f4552433732313a2062616c616e636520717565727920666f7220746865207a65604482015269726f206164647265737360b01b6064820152608401610484565b506001600160a01b031660009081526003602052604090205490565b6006546001600160a01b031633146107eb5760405162461bcd60e51b815260206004820181905260248201527f4f776e61626c653a2063616c6c6572206973206e6f7420746865206f776e65726044820152606401610484565b6006546040516000916001600160a01b0316907f8be0079c531659141344cd1fd0a4f28419497f9722a3daafe3b4186f6b6457e0908390a3600680546001600160a01b0319169055565b60606001805461038c906116d4565b6001600160a01b03821633141561089d5760405162461bcd60e51b815260206004820152601960248201527f4552433732313a20617070726f766520746f2063616c6c6572000000000000006044820152606401610484565b3360008181526005602090815260408083206001600160a01b03871680855290835292819020805460ff191686151590811790915590519081529192917f17307eab39ab6107e8899845ad3d59bd9653f200f220920489ca2b5937696c31910160405180910390a35050565b600680546001600160a01b0319163390811790915560405160009190819083907f8be0079c531659141344cd1fd0a4f28419497f9722a3daafe3b4186f6b6457e0908290a3919050565b61095d3383610e32565b6109795760405162461bcd60e51b81526004016104849061170f565b61098584848484611183565b50505050565b6000818152600260205260409020546060906001600160a01b0316610a0a5760405162461bcd60e51b815260206004820152602f60248201527f4552433732314d657461646174613a2055524920717565727920666f72206e6f60448201526e3732bc34b9ba32b73a103a37b5b2b760891b6064820152608401610484565b60008281526007602052604081208054610a23906116d4565b80601f0160208091040260200160405190810160405280929190818152602001828054610a4f906116d4565b8015610a9c5780601f10610a7157610100808354040283529160200191610a9c565b820191906000526020600020905b815481529060010190602001808311610a7f57829003601f168201915b5093979650505050505050565b8151606090610abf9060009060208601906112b4565b508151610ad39060019060208501906112b4565b5060008054610ae1906116d4565b80601f0160208091040260200160405190810160405280929190818152602001828054610b0d906116d4565b8015610b5a5780601f10610b2f57610100808354040283529160200191610b5a565b820191906000526020600020905b815481529060010190602001808311610b3d57829003601f168201915b5050505050905092915050565b6006546001600160a01b03163314610bc15760405162461bcd60e51b815260206004820181905260248201527f4f776e61626c653a2063616c6c6572206973206e6f7420746865206f776e65726044820152606401610484565b6001600160a01b038116610c265760405162461bcd60e51b815260206004820152602660248201527f4f776e61626c653a206e6577206f776e657220697320746865207a65726f206160448201526564647265737360d01b6064820152608401610484565b6006546040516001600160a01b038084169216907f8be0079c531659141344cd1fd0a4f28419497f9722a3daafe3b4186f6b6457e090600090a3600680546001600160a01b0319166001600160a01b0392909216919091179055565b600081815260046020526040902080546001600160a01b0319166001600160a01b0384169081179091558190610cb782610693565b6001600160a01b03167f8c5be1e5ebec7d5bd14f71427d1e84f3dd0314c0f7b2291e5b200ac8c7c3b92560405160405180910390a45050565b6001600160a01b038216610d465760405162461bcd60e51b815260206004820181905260248201527f4552433732313a206d696e7420746f20746865207a65726f20616464726573736044820152606401610484565b6000818152600260205260409020546001600160a01b031615610dab5760405162461bcd60e51b815260206004820152601c60248201527f4552433732313a20746f6b656e20616c7265616479206d696e746564000000006044820152606401610484565b6001600160a01b0382166000908152600360205260408120805460019290610dd4908490611776565b909155505060008181526002602052604080822080546001600160a01b0319166001600160a01b03861690811790915590518392907fddf252ad1be2c89b69c2b068fc378daa952ba7f163c4a11628f55a4df523b3ef908290a45050565b6000818152600260205260408120546001600160a01b0316610eab5760405162461bcd60e51b815260206004820152602c60248201527f4552433732313a206f70657261746f7220717565727920666f72206e6f6e657860448201526b34b9ba32b73a103a37b5b2b760a11b6064820152608401610484565b6000610eb683610693565b9050806001600160a01b0316846001600160a01b03161480610ef15750836001600160a01b0316610ee68461040f565b6001600160a01b0316145b80610f2157506001600160a01b0380821660009081526005602090815260408083209388168352929052205460ff165b949350505050565b826001600160a01b0316610f3c82610693565b6001600160a01b031614610fa45760405162461bcd60e51b815260206004820152602960248201527f4552433732313a207472616e73666572206f6620746f6b656e2074686174206960448201526839903737ba1037bbb760b91b6064820152608401610484565b6001600160a01b0382166110065760405162461bcd60e51b8152602060048201526024808201527f4552433732313a207472616e7366657220746f20746865207a65726f206164646044820152637265737360e01b6064820152608401610484565b611011600082610c82565b6001600160a01b038316600090815260036020526040812080546001929061103a90849061178e565b90915550506001600160a01b0382166000908152600360205260408120805460019290611068908490611776565b909155505060008181526002602052604080822080546001600160a01b0319166001600160a01b0386811691821790925591518493918716917fddf252ad1be2c89b69c2b068fc378daa952ba7f163c4a11628f55a4df523b3ef91a4505050565b600082815260076020908152604090912082516105ba928401906112b4565b60006110f382610693565b9050611100600083610c82565b6001600160a01b038116600090815260036020526040812080546001929061112990849061178e565b909155505060008281526002602052604080822080546001600160a01b0319169055518391906001600160a01b038416907fddf252ad1be2c89b69c2b068fc378daa952ba7f163c4a11628f55a4df523b3ef908390a45050565b61118e848484610f29565b61119a848484846111b6565b6109855760405162461bcd60e51b8152600401610484906117a5565b60006001600160a01b0384163b156112a957604051630a85bd0160e11b81526001600160a01b0385169063150b7a02906111fa9033908990889088906004016117f7565b6020604051808303816000875af1925050508015611235575060408051601f3d908101601f1916820190925261123291810190611834565b60015b61128f573d808015611263576040519150601f19603f3d011682016040523d82523d6000602084013e611268565b606091505b5080516112875760405162461bcd60e51b8152600401610484906117a5565b805181602001fd5b6001600160e01b031916630a85bd0160e11b149050610f21565b506001949350505050565b8280546112c0906116d4565b90600052602060002090601f0160209004810192826112e25760008555611328565b82601f106112fb57805160ff1916838001178555611328565b82800160010185558215611328579182015b8281111561132857825182559160200191906001019061130d565b50611334929150611338565b5090565b5b808211156113345760008155600101611339565b6001600160e01b03198116811461136357600080fd5b50565b60006020828403121561137857600080fd5b81356106658161134d565b6000815180845260005b818110156113a95760208185018101518683018201520161138d565b818111156113bb576000602083870101525b50601f01601f19169290920160200192915050565b6020815260006106656020830184611383565b6000602082840312156113f557600080fd5b5035919050565b80356001600160a01b03811681146105ce57600080fd5b6000806040838503121561142657600080fd5b61142f836113fc565b946020939093013593505050565b60008060006060848603121561145257600080fd5b61145b846113fc565b9250611469602085016113fc565b9150604084013590509250925092565b634e487b7160e01b600052604160045260246000fd5b600067ffffffffffffffff808411156114aa576114aa611479565b604051601f8501601f19908116603f011681019082821181831017156114d2576114d2611479565b816040528093508581528686860111156114eb57600080fd5b858560208301376000602087830101525050509392505050565b600082601f83011261151657600080fd5b6106658383356020850161148f565b6000806040838503121561153857600080fd5b823567ffffffffffffffff81111561154f57600080fd5b61155b85828601611505565b95602094909401359450505050565b60006020828403121561157c57600080fd5b610665826113fc565b6000806040838503121561159857600080fd5b6115a1836113fc565b9150602083013580151581146115b657600080fd5b809150509250929050565b600080600080608085870312156115d757600080fd5b6115e0856113fc565b93506115ee602086016113fc565b925060408501359150606085013567ffffffffffffffff81111561161157600080fd5b8501601f8101871361162257600080fd5b6116318782356020840161148f565b91505092959194509250565b6000806040838503121561165057600080fd5b823567ffffffffffffffff8082111561166857600080fd5b61167486838701611505565b9350602085013591508082111561168a57600080fd5b5061169785828601611505565b9150509250929050565b600080604083850312156116b457600080fd5b6116bd836113fc565b91506116cb602084016113fc565b90509250929050565b600181811c908216806116e857607f821691505b6020821081141561170957634e487b7160e01b600052602260045260246000fd5b50919050565b60208082526031908201527f4552433732313a207472616e736665722063616c6c6572206973206e6f74206f6040820152701ddb995c881b9bdc88185c1c1c9bdd9959607a1b606082015260800190565b634e487b7160e01b600052601160045260246000fd5b6000821982111561178957611789611760565b500190565b6000828210156117a0576117a0611760565b500390565b60208082526032908201527f4552433732313a207472616e7366657220746f206e6f6e20455243373231526560408201527131b2b4bb32b91034b6b83632b6b2b73a32b960711b606082015260800190565b6001600160a01b038581168252841660208201526040810183905260806060820181905260009061182a90830184611383565b9695505050505050565b60006020828403121561184657600080fd5b81516106658161134d56fea2646970667358221220f5cbc1993e971cc45d26b068535e48954d34e5068cde84400e709441f889e57764736f6c634300080c0033",
  "linkReferences": {},
  "deployedLinkReferences": {}
}