{
  "_format": "hh-sol-artifact-1",
  "contractName": "GMApelion",
  "sourceName": "contracts/GMApelion.sol",
  "abi": [
    {
      "anonymous": false,
      "inputs": [
        {
          "indexed": true,
          "internalType": "address",
          "name": "owner",
          "type": "address"
        },
        {
          "indexed": true,
          "internalType": "address",
          "name": "approved",
          "type": "address"
        },
        {
          "indexed": true,
          "internalType": "uint256",
          "name": "tokenId",
          "type": "uint256"
        }
      ],
      "name": "Approval",
      "type": "event"
    },
    {
      "anonymous": false,
      "inputs": [
        {
          "indexed": true,
          "internalType": "address",
          "name": "owner",
          "type": "address"
        },
        {
          "indexed": true,
          "internalType": "address",
          "name": "operator",
          "type": "address"
        },
        {
          "indexed": false,
          "internalType": "bool",
          "name": "approved",
          "type": "bool"
        }
      ],
      "name": "ApprovalForAll",
      "type": "event"
    },
    {
      "anonymous": false,
      "inputs": [
        {
          "indexed": true,
          "internalType": "address",
          "name": "previousOwner",
          "type": "address"
        },
        {
          "indexed": true,
          "internalType": "address",
          "name": "newOwner",
          "type": "address"
        }
      ],
      "name": "OwnershipTransferred",
      "type": "event"
    },
    {
      "anonymous": false,
      "inputs": [
        {
          "indexed": true,
          "internalType": "address",
          "name": "from",
          "type": "address"
        },
        {
          "indexed": true,
          "internalType": "address",
          "name": "to",
          "type": "address"
        },
        {
          "indexed": true,
          "internalType": "uint256",
          "name": "tokenId",
          "type": "uint256"
        }
      ],
      "name": "Transfer",
      "type": "event"
    },
    {
      "inputs": [
        {
          "internalType": "address",
          "name": "to",
          "type": "address"
        },
        {
          "internalType": "uint256",
          "name": "tokenId",
          "type": "uint256"
        }
      ],
      "name": "approve",
      "outputs": [],
      "stateMutability": "nonpayable",
      "type": "function"
    },
    {
      "inputs": [
        {
          "internalType": "address",
          "name": "owner",
          "type": "address"
        }
      ],
      "name": "balanceOf",
      "outputs": [
        {
          "internalType": "uint256",
          "name": "",
          "type": "uint256"
        }
      ],
      "stateMutability": "view",
      "type": "function"
    },
    {
      "inputs": [
        {
          "internalType": "uint256",
          "name": "nftTokenId",
          "type": "uint256"
        }
      ],
      "name": "burn",
      "outputs": [
        {
          "internalType": "uint256",
          "name": "",
          "type": "uint256"
        }
      ],
      "stateMutability": "nonpayable",
      "type": "function"
    },
    {
      "inputs": [
        {
          "internalType": "uint256",
          "name": "tokenId",
          "type": "uint256"
        }
      ],
      "name": "getApproved",
      "outputs": [
        {
          "internalType": "address",
          "name": "",
          "type": "address"
        }
      ],
      "stateMutability": "view",
      "type": "function"
    },
    {
      "inputs": [
        {
          "internalType": "string",
          "name": "name_",
          "type": "string"
        },
        {
          "internalType": "string",
          "name": "symbol_",
          "type": "string"
        }
      ],
      "name": "initializeERC721",
      "outputs": [
        {
          "internalType": "string",
          "name": "",
          "type": "string"
        }
      ],
      "stateMutability": "nonpayable",
      "type": "function"
    },
    {
      "inputs": [],
      "name": "initializeGMApelion",
      "outputs": [
        {
          "internalType": "string",
          "name": "",
          "type": "string"
        }
      ],
      "stateMutability": "nonpayable",
      "type": "function"
    },
    {
      "inputs": [],
      "name": "initializeOwnable",
      "outputs": [
        {
          "internalType": "address",
          "name": "",
          "type": "address"
        }
      ],
      "stateMutability": "nonpayable",
      "type": "function"
    },
    {
      "inputs": [
        {
          "internalType": "address",
          "name": "owner",
          "type": "address"
        },
        {
          "internalType": "address",
          "name": "operator",
          "type": "address"
        }
      ],
      "name": "isApprovedForAll",
      "outputs": [
        {
          "internalType": "bool",
          "name": "",
          "type": "bool"
        }
      ],
      "stateMutability": "view",
      "type": "function"
    },
    {
      "inputs": [],
      "name": "mint",
      "outputs": [
        {
          "internalType": "uint256",
          "name": "",
          "type": "uint256"
        }
      ],
      "stateMutability": "nonpayable",
      "type": "function"
    },
    {
      "inputs": [],
      "name": "name",
      "outputs": [
        {
          "internalType": "string",
          "name": "",
          "type": "string"
        }
      ],
      "stateMutability": "view",
      "type": "function"
    },
    {
      "inputs": [],
      "name": "owner",
      "outputs": [
        {
          "internalType": "address",
          "name": "",
          "type": "address"
        }
      ],
      "stateMutability": "view",
      "type": "function"
    },
    {
      "inputs": [
        {
          "internalType": "uint256",
          "name": "tokenId",
          "type": "uint256"
        }
      ],
      "name": "ownerOf",
      "outputs": [
        {
          "internalType": "address",
          "name": "",
          "type": "address"
        }
      ],
      "stateMutability": "view",
      "type": "function"
    },
    {
      "inputs": [],
      "name": "renounceOwnership",
      "outputs": [],
      "stateMutability": "nonpayable",
      "type": "function"
    },
    {
      "inputs": [
        {
          "internalType": "address",
          "name": "from",
          "type": "address"
        },
        {
          "internalType": "address",
          "name": "to",
          "type": "address"
        },
        {
          "internalType": "uint256",
          "name": "tokenId",
          "type": "uint256"
        }
      ],
      "name": "safeTransferFrom",
      "outputs": [],
      "stateMutability": "nonpayable",
      "type": "function"
    },
    {
      "inputs": [
        {
          "internalType": "address",
          "name": "from",
          "type": "address"
        },
        {
          "internalType": "address",
          "name": "to",
          "type": "address"
        },
        {
          "internalType": "uint256",
          "name": "tokenId",
          "type": "uint256"
        },
        {
          "internalType": "bytes",
          "name": "_data",
          "type": "bytes"
        }
      ],
      "name": "safeTransferFrom",
      "outputs": [],
      "stateMutability": "nonpayable",
      "type": "function"
    },
    {
      "inputs": [
        {
          "internalType": "address",
          "name": "operator",
          "type": "address"
        },
        {
          "internalType": "bool",
          "name": "approved",
          "type": "bool"
        }
      ],
      "name": "setApprovalForAll",
      "outputs": [],
      "stateMutability": "nonpayable",
      "type": "function"
    },
    {
      "inputs": [
        {
          "internalType": "bytes4",
          "name": "interfaceId",
          "type": "bytes4"
        }
      ],
      "name": "supportsInterface",
      "outputs": [
        {
          "internalType": "bool",
          "name": "",
          "type": "bool"
        }
      ],
      "stateMutability": "view",
      "type": "function"
    },
    {
      "inputs": [],
      "name": "symbol",
      "outputs": [
        {
          "internalType": "string",
          "name": "",
          "type": "string"
        }
      ],
      "stateMutability": "view",
      "type": "function"
    },
    {
      "inputs": [
        {
          "internalType": "uint256",
          "name": "tokenId",
          "type": "uint256"
        }
      ],
      "name": "tokenURI",
      "outputs": [
        {
          "internalType": "string",
          "name": "",
          "type": "string"
        }
      ],
      "stateMutability": "view",
      "type": "function"
    },
    {
      "inputs": [],
      "name": "totalSupply",
      "outputs": [
        {
          "internalType": "uint256",
          "name": "",
          "type": "uint256"
        }
      ],
      "stateMutability": "pure",
      "type": "function"
    },
    {
      "inputs": [
        {
          "internalType": "address",
          "name": "from",
          "type": "address"
        },
        {
          "internalType": "address",
          "name": "to",
          "type": "address"
        },
        {
          "internalType": "uint256",
          "name": "tokenId",
          "type": "uint256"
        }
      ],
      "name": "transferFrom",
      "outputs": [],
      "stateMutability": "nonpayable",
      "type": "function"
    },
    {
      "inputs": [
        {
          "internalType": "address",
          "name": "newOwner",
          "type": "address"
        }
      ],
      "name": "transferOwnership",
      "outputs": [],
      "stateMutability": "nonpayable",
      "type": "function"
    },
    {
      "inputs": [
        {
          "internalType": "string",
          "name": "uri",
          "type": "string"
        },
        {
          "internalType": "uint256",
          "name": "nftTokenId",
          "type": "uint256"
        }
      ],
      "name": "updateMetaData",
      "outputs": [
        {
          "internalType": "uint256",
          "name": "",
          "type": "uint256"
        }
      ],
      "stateMutability": "nonpayable",
      "type": "function"
    }
  ],
  "bytecode": "0x608060405234801561001057600080fd5b50611ab2806100206000396000f3fe608060405234801561001057600080fd5b506004361061014d5760003560e01c80636352211e116100c3578063b78975a11161007c578063b78975a11461029b578063b88d4fde146102a3578063c87b56dd146102b6578063d147c97a146102c9578063e985e9c5146102dc578063f2fde38b1461031857600080fd5b80636352211e1461024157806370a0823114610254578063715018a6146102675780638da5cb5b1461026f57806395d89b4114610280578063a22cb4651461028857600080fd5b806318160ddd1161011557806318160ddd146101e55780631d2d602a146101ed57806323b872dd146101f557806326cbdc5c1461020857806342842e0e1461021b57806342966c681461022e57600080fd5b806301ffc9a71461015257806306fdde031461017a578063081812fc1461018f578063095ea7b3146101ba5780631249c58b146101cf575b600080fd5b610165610160366004611525565b61032b565b60405190151581526020015b60405180910390f35b61018261037d565b604051610171919061158f565b6101a261019d3660046115a2565b61040f565b6040516001600160a01b039091168152602001610171565b6101cd6101c83660046115d0565b6104a9565b005b6101d76105bf565b604051908152602001610171565b6127106101d7565b610182610741565b6101cd6102033660046115fc565b610795565b6101d76102163660046116e9565b6107c6565b6101cd6102293660046115fc565b6107da565b6101d761023c3660046115a2565b6107f5565b6101a261024f3660046115a2565b610801565b6101d761026236600461172e565b610878565b6101cd6108ff565b6006546001600160a01b03166101a2565b6101826109a3565b6101cd61029636600461174b565b6109b2565b6101a2610a77565b6101cd6102b1366004611789565b610ac1565b6101826102c43660046115a2565b610af9565b6101826102d7366004611809565b610c17565b6101656102ea36600461186d565b6001600160a01b03918216600090815260056020908152604080832093909416825291909152205460ff1690565b6101cd61032636600461172e565b610cd5565b60006001600160e01b031982166380ac58cd60e01b148061035c57506001600160e01b03198216635b5e139f60e01b145b8061037757506301ffc9a760e01b6001600160e01b03198316145b92915050565b60606000805461038c9061189b565b80601f01602080910402602001604051908101604052809291908181526020018280546103b89061189b565b80156104055780601f106103da57610100808354040283529160200191610405565b820191906000526020600020905b8154815290600101906020018083116103e857829003601f168201915b5050505050905090565b6000818152600260205260408120546001600160a01b031661048d5760405162461bcd60e51b815260206004820152602c60248201527f4552433732313a20617070726f76656420717565727920666f72206e6f6e657860448201526b34b9ba32b73a103a37b5b2b760a11b60648201526084015b60405180910390fd5b506000908152600460205260409020546001600160a01b031690565b60006104b482610801565b9050806001600160a01b0316836001600160a01b031614156105225760405162461bcd60e51b815260206004820152602160248201527f4552433732313a20617070726f76616c20746f2063757272656e74206f776e656044820152603960f91b6064820152608401610484565b336001600160a01b038216148061053e575061053e81336102ea565b6105b05760405162461bcd60e51b815260206004820152603860248201527f4552433732313a20617070726f76652063616c6c6572206973206e6f74206f7760448201527f6e6572206e6f7220617070726f76656420666f7220616c6c00000000000000006064820152608401610484565b6105ba8383610df0565b505050565b60007385cbf58c9d20459339a0b1f586a5fac643a2928661271181835b828110156106a6576040516331a9108f60e11b81526004810182905233906001600160a01b03841690636352211e90602401602060405180830381865afa15801561062b573d6000803e3d6000fd5b505050506040513d601f19601f8201168201806040525081019061064f91906118d6565b6001600160a01b0316141561069457600880546001810182556000919091527ff3f7a9fe364faab93b216da50a3214154f22a0a2b415b23a84c8169e8b636ee3018190555b8061069e81611909565b9150506105dc565b5060005b6008548110156106ed576106db33600883815481106106cb576106cb611924565b9060005260206000200154610e5e565b806106e581611909565b9150506106aa565b5060005b60085481101561073557600880548061070c5761070c61193a565b60019003818190600052602060002001600090559055808061072d90611909565b9150506106f1565b50506008549392505050565b6040805180820182526005815264545259203160d81b6020808301919091528251808401909352600383526254525960e81b908301526060916107848282610c17565b5061078d610a77565b509092915050565b61079f3382610e7c565b6107bb5760405162461bcd60e51b815260040161048490611950565b6105ba838383610f73565b6000816107d38185611113565b9392505050565b6105ba83838360405180602001604052806000815250610ac1565b60008161037781611132565b6000818152600260205260408120546001600160a01b0316806103775760405162461bcd60e51b815260206004820152602960248201527f4552433732313a206f776e657220717565727920666f72206e6f6e657869737460448201526832b73a103a37b5b2b760b91b6064820152608401610484565b60006001600160a01b0382166108e35760405162461bcd60e51b815260206004820152602a60248201527f4552433732313a2062616c616e636520717565727920666f7220746865207a65604482015269726f206164647265737360b01b6064820152608401610484565b506001600160a01b031660009081526003602052604090205490565b6006546001600160a01b031633146109595760405162461bcd60e51b815260206004820181905260248201527f4f776e61626c653a2063616c6c6572206973206e6f7420746865206f776e65726044820152606401610484565b6006546040516000916001600160a01b0316907f8be0079c531659141344cd1fd0a4f28419497f9722a3daafe3b4186f6b6457e0908390a3600680546001600160a01b0319169055565b60606001805461038c9061189b565b6001600160a01b038216331415610a0b5760405162461bcd60e51b815260206004820152601960248201527f4552433732313a20617070726f766520746f2063616c6c6572000000000000006044820152606401610484565b3360008181526005602090815260408083206001600160a01b03871680855290835292819020805460ff191686151590811790915590519081529192917f17307eab39ab6107e8899845ad3d59bd9653f200f220920489ca2b5937696c31910160405180910390a35050565b600680546001600160a01b0319163390811790915560405160009190819083907f8be0079c531659141344cd1fd0a4f28419497f9722a3daafe3b4186f6b6457e0908290a3919050565b610acb3383610e7c565b610ae75760405162461bcd60e51b815260040161048490611950565b610af3848484846111cd565b50505050565b6000818152600260205260409020546060906001600160a01b0316610b785760405162461bcd60e51b815260206004820152602f60248201527f4552433732314d657461646174613a2055524920717565727920666f72206e6f60448201526e3732bc34b9ba32b73a103a37b5b2b760891b6064820152608401610484565b60008281526007602052604081208054610b919061189b565b80601f0160208091040260200160405190810160405280929190818152602001828054610bbd9061189b565b8015610c0a5780601f10610bdf57610100808354040283529160200191610c0a565b820191906000526020600020905b815481529060010190602001808311610bed57829003601f168201915b5093979650505050505050565b8151606090610c2d906000906020860190611473565b508151610c41906001906020850190611473565b5060008054610c4f9061189b565b80601f0160208091040260200160405190810160405280929190818152602001828054610c7b9061189b565b8015610cc85780601f10610c9d57610100808354040283529160200191610cc8565b820191906000526020600020905b815481529060010190602001808311610cab57829003601f168201915b5050505050905092915050565b6006546001600160a01b03163314610d2f5760405162461bcd60e51b815260206004820181905260248201527f4f776e61626c653a2063616c6c6572206973206e6f7420746865206f776e65726044820152606401610484565b6001600160a01b038116610d945760405162461bcd60e51b815260206004820152602660248201527f4f776e61626c653a206e6577206f776e657220697320746865207a65726f206160448201526564647265737360d01b6064820152608401610484565b6006546040516001600160a01b038084169216907f8be0079c531659141344cd1fd0a4f28419497f9722a3daafe3b4186f6b6457e090600090a3600680546001600160a01b0319166001600160a01b0392909216919091179055565b600081815260046020526040902080546001600160a01b0319166001600160a01b0384169081179091558190610e2582610801565b6001600160a01b03167f8c5be1e5ebec7d5bd14f71427d1e84f3dd0314c0f7b2291e5b200ac8c7c3b92560405160405180910390a45050565b610e78828260405180602001604052806000815250611200565b5050565b6000818152600260205260408120546001600160a01b0316610ef55760405162461bcd60e51b815260206004820152602c60248201527f4552433732313a206f70657261746f7220717565727920666f72206e6f6e657860448201526b34b9ba32b73a103a37b5b2b760a11b6064820152608401610484565b6000610f0083610801565b9050806001600160a01b0316846001600160a01b03161480610f3b5750836001600160a01b0316610f308461040f565b6001600160a01b0316145b80610f6b57506001600160a01b0380821660009081526005602090815260408083209388168352929052205460ff165b949350505050565b826001600160a01b0316610f8682610801565b6001600160a01b031614610fee5760405162461bcd60e51b815260206004820152602960248201527f4552433732313a207472616e73666572206f6620746f6b656e2074686174206960448201526839903737ba1037bbb760b91b6064820152608401610484565b6001600160a01b0382166110505760405162461bcd60e51b8152602060048201526024808201527f4552433732313a207472616e7366657220746f20746865207a65726f206164646044820152637265737360e01b6064820152608401610484565b61105b600082610df0565b6001600160a01b03831660009081526003602052604081208054600192906110849084906119a1565b90915550506001600160a01b03821660009081526003602052604081208054600192906110b29084906119b8565b909155505060008181526002602052604080822080546001600160a01b0319166001600160a01b0386811691821790925591518493918716917fddf252ad1be2c89b69c2b068fc378daa952ba7f163c4a11628f55a4df523b3ef91a4505050565b600082815260076020908152604090912082516105ba92840190611473565b600061113d82610801565b905061114a600083610df0565b6001600160a01b03811660009081526003602052604081208054600192906111739084906119a1565b909155505060008281526002602052604080822080546001600160a01b0319169055518391906001600160a01b038416907fddf252ad1be2c89b69c2b068fc378daa952ba7f163c4a11628f55a4df523b3ef908390a45050565b6111d8848484610f73565b6111e484848484611233565b610af35760405162461bcd60e51b8152600401610484906119d0565b61120a8383611331565b6112176000848484611233565b6105ba5760405162461bcd60e51b8152600401610484906119d0565b60006001600160a01b0384163b1561132657604051630a85bd0160e11b81526001600160a01b0385169063150b7a0290611277903390899088908890600401611a22565b6020604051808303816000875af19250505080156112b2575060408051601f3d908101601f191682019092526112af91810190611a5f565b60015b61130c573d8080156112e0576040519150601f19603f3d011682016040523d82523d6000602084013e6112e5565b606091505b5080516113045760405162461bcd60e51b8152600401610484906119d0565b805181602001fd5b6001600160e01b031916630a85bd0160e11b149050610f6b565b506001949350505050565b6001600160a01b0382166113875760405162461bcd60e51b815260206004820181905260248201527f4552433732313a206d696e7420746f20746865207a65726f20616464726573736044820152606401610484565b6000818152600260205260409020546001600160a01b0316156113ec5760405162461bcd60e51b815260206004820152601c60248201527f4552433732313a20746f6b656e20616c7265616479206d696e746564000000006044820152606401610484565b6001600160a01b03821660009081526003602052604081208054600192906114159084906119b8565b909155505060008181526002602052604080822080546001600160a01b0319166001600160a01b03861690811790915590518392907fddf252ad1be2c89b69c2b068fc378daa952ba7f163c4a11628f55a4df523b3ef908290a45050565b82805461147f9061189b565b90600052602060002090601f0160209004810192826114a157600085556114e7565b82601f106114ba57805160ff19168380011785556114e7565b828001600101855582156114e7579182015b828111156114e75782518255916020019190600101906114cc565b506114f39291506114f7565b5090565b5b808211156114f357600081556001016114f8565b6001600160e01b03198116811461152257600080fd5b50565b60006020828403121561153757600080fd5b81356107d38161150c565b6000815180845260005b818110156115685760208185018101518683018201520161154c565b8181111561157a576000602083870101525b50601f01601f19169290920160200192915050565b6020815260006107d36020830184611542565b6000602082840312156115b457600080fd5b5035919050565b6001600160a01b038116811461152257600080fd5b600080604083850312156115e357600080fd5b82356115ee816115bb565b946020939093013593505050565b60008060006060848603121561161157600080fd5b833561161c816115bb565b9250602084013561162c816115bb565b929592945050506040919091013590565b634e487b7160e01b600052604160045260246000fd5b600067ffffffffffffffff8084111561166e5761166e61163d565b604051601f8501601f19908116603f011681019082821181831017156116965761169661163d565b816040528093508581528686860111156116af57600080fd5b858560208301376000602087830101525050509392505050565b600082601f8301126116da57600080fd5b6107d383833560208501611653565b600080604083850312156116fc57600080fd5b823567ffffffffffffffff81111561171357600080fd5b61171f858286016116c9565b95602094909401359450505050565b60006020828403121561174057600080fd5b81356107d3816115bb565b6000806040838503121561175e57600080fd5b8235611769816115bb565b91506020830135801515811461177e57600080fd5b809150509250929050565b6000806000806080858703121561179f57600080fd5b84356117aa816115bb565b935060208501356117ba816115bb565b925060408501359150606085013567ffffffffffffffff8111156117dd57600080fd5b8501601f810187136117ee57600080fd5b6117fd87823560208401611653565b91505092959194509250565b6000806040838503121561181c57600080fd5b823567ffffffffffffffff8082111561183457600080fd5b611840868387016116c9565b9350602085013591508082111561185657600080fd5b50611863858286016116c9565b9150509250929050565b6000806040838503121561188057600080fd5b823561188b816115bb565b9150602083013561177e816115bb565b600181811c908216806118af57607f821691505b602082108114156118d057634e487b7160e01b600052602260045260246000fd5b50919050565b6000602082840312156118e857600080fd5b81516107d3816115bb565b634e487b7160e01b600052601160045260246000fd5b600060001982141561191d5761191d6118f3565b5060010190565b634e487b7160e01b600052603260045260246000fd5b634e487b7160e01b600052603160045260246000fd5b60208082526031908201527f4552433732313a207472616e736665722063616c6c6572206973206e6f74206f6040820152701ddb995c881b9bdc88185c1c1c9bdd9959607a1b606082015260800190565b6000828210156119b3576119b36118f3565b500390565b600082198211156119cb576119cb6118f3565b500190565b60208082526032908201527f4552433732313a207472616e7366657220746f206e6f6e20455243373231526560408201527131b2b4bb32b91034b6b83632b6b2b73a32b960711b606082015260800190565b6001600160a01b0385811682528416602082015260408101839052608060608201819052600090611a5590830184611542565b9695505050505050565b600060208284031215611a7157600080fd5b81516107d38161150c56fea2646970667358221220fe289ad6d8da33ed53639f79d03f1b07a78966a18eda72fe3aecd8e8a7b5b64564736f6c634300080c0033",
  "linkReferences": {},
  "deployedLinkReferences": {}
}